{
  "_format": "hh-sol-artifact-1",
  "contractName": "myNFT",
  "sourceName": "contracts/myNFT.sol",
  "abi": [
    {
      "inputs": [
        {
          "internalType": "string",
          "name": "name",
          "type": "string"
        },
        {
          "internalType": "string",
          "name": "symbol",
          "type": "string"
        }
      ],
      "stateMutability": "nonpayable",
      "type": "constructor"
    },
    {
      "anonymous": false,
      "inputs": [
        {
          "indexed": true,
          "internalType": "address",
          "name": "owner",
          "type": "address"
        },
        {
          "indexed": true,
          "internalType": "address",
          "name": "approved",
          "type": "address"
        },
        {
          "indexed": true,
          "internalType": "uint256",
          "name": "tokenId",
          "type": "uint256"
        }
      ],
      "name": "Approval",
      "type": "event"
    },
    {
      "anonymous": false,
      "inputs": [
        {
          "indexed": true,
          "internalType": "address",
          "name": "owner",
          "type": "address"
        },
        {
          "indexed": true,
          "internalType": "address",
          "name": "operator",
          "type": "address"
        },
        {
          "indexed": false,
          "internalType": "bool",
          "name": "approved",
          "type": "bool"
        }
      ],
      "name": "ApprovalForAll",
      "type": "event"
    },
    {
      "anonymous": false,
      "inputs": [
        {
          "indexed": true,
          "internalType": "address",
          "name": "previousOwner",
          "type": "address"
        },
        {
          "indexed": true,
          "internalType": "address",
          "name": "newOwner",
          "type": "address"
        }
      ],
      "name": "OwnershipTransferred",
      "type": "event"
    },
    {
      "anonymous": false,
      "inputs": [
        {
          "indexed": true,
          "internalType": "address",
          "name": "from",
          "type": "address"
        },
        {
          "indexed": true,
          "internalType": "address",
          "name": "to",
          "type": "address"
        },
        {
          "indexed": true,
          "internalType": "uint256",
          "name": "tokenId",
          "type": "uint256"
        }
      ],
      "name": "Transfer",
      "type": "event"
    },
    {
      "inputs": [
        {
          "internalType": "address",
          "name": "to",
          "type": "address"
        },
        {
          "internalType": "uint256",
          "name": "tokenId",
          "type": "uint256"
        }
      ],
      "name": "approve",
      "outputs": [],
      "stateMutability": "nonpayable",
      "type": "function"
    },
    {
      "inputs": [
        {
          "internalType": "address",
          "name": "owner",
          "type": "address"
        }
      ],
      "name": "balanceOf",
      "outputs": [
        {
          "internalType": "uint256",
          "name": "",
          "type": "uint256"
        }
      ],
      "stateMutability": "view",
      "type": "function"
    },
    {
      "inputs": [
        {
          "internalType": "uint256",
          "name": "tokenId",
          "type": "uint256"
        }
      ],
      "name": "burn",
      "outputs": [],
      "stateMutability": "nonpayable",
      "type": "function"
    },
    {
      "inputs": [
        {
          "internalType": "uint256",
          "name": "tokenId",
          "type": "uint256"
        }
      ],
      "name": "getApproved",
      "outputs": [
        {
          "internalType": "address",
          "name": "",
          "type": "address"
        }
      ],
      "stateMutability": "view",
      "type": "function"
    },
    {
      "inputs": [
        {
          "internalType": "address",
          "name": "owner",
          "type": "address"
        },
        {
          "internalType": "address",
          "name": "operator",
          "type": "address"
        }
      ],
      "name": "isApprovedForAll",
      "outputs": [
        {
          "internalType": "bool",
          "name": "",
          "type": "bool"
        }
      ],
      "stateMutability": "view",
      "type": "function"
    },
    {
      "inputs": [
        {
          "internalType": "string",
          "name": "tokenURI",
          "type": "string"
        }
      ],
      "name": "mint",
      "outputs": [
        {
          "internalType": "uint256",
          "name": "",
          "type": "uint256"
        }
      ],
      "stateMutability": "nonpayable",
      "type": "function"
    },
    {
      "inputs": [],
      "name": "name",
      "outputs": [
        {
          "internalType": "string",
          "name": "",
          "type": "string"
        }
      ],
      "stateMutability": "view",
      "type": "function"
    },
    {
      "inputs": [],
      "name": "owner",
      "outputs": [
        {
          "internalType": "address",
          "name": "",
          "type": "address"
        }
      ],
      "stateMutability": "view",
      "type": "function"
    },
    {
      "inputs": [
        {
          "internalType": "uint256",
          "name": "tokenId",
          "type": "uint256"
        }
      ],
      "name": "ownerOf",
      "outputs": [
        {
          "internalType": "address",
          "name": "",
          "type": "address"
        }
      ],
      "stateMutability": "view",
      "type": "function"
    },
    {
      "inputs": [],
      "name": "renounceOwnership",
      "outputs": [],
      "stateMutability": "nonpayable",
      "type": "function"
    },
    {
      "inputs": [
        {
          "internalType": "address",
          "name": "from",
          "type": "address"
        },
        {
          "internalType": "address",
          "name": "to",
          "type": "address"
        },
        {
          "internalType": "uint256",
          "name": "tokenId",
          "type": "uint256"
        }
      ],
      "name": "safeTransferFrom",
      "outputs": [],
      "stateMutability": "nonpayable",
      "type": "function"
    },
    {
      "inputs": [
        {
          "internalType": "address",
          "name": "from",
          "type": "address"
        },
        {
          "internalType": "address",
          "name": "to",
          "type": "address"
        },
        {
          "internalType": "uint256",
          "name": "tokenId",
          "type": "uint256"
        },
        {
          "internalType": "bytes",
          "name": "data",
          "type": "bytes"
        }
      ],
      "name": "safeTransferFrom",
      "outputs": [],
      "stateMutability": "nonpayable",
      "type": "function"
    },
    {
      "inputs": [
        {
          "internalType": "address",
          "name": "operator",
          "type": "address"
        },
        {
          "internalType": "bool",
          "name": "approved",
          "type": "bool"
        }
      ],
      "name": "setApprovalForAll",
      "outputs": [],
      "stateMutability": "nonpayable",
      "type": "function"
    },
    {
      "inputs": [
        {
          "internalType": "bytes4",
          "name": "interfaceId",
          "type": "bytes4"
        }
      ],
      "name": "supportsInterface",
      "outputs": [
        {
          "internalType": "bool",
          "name": "",
          "type": "bool"
        }
      ],
      "stateMutability": "view",
      "type": "function"
    },
    {
      "inputs": [],
      "name": "symbol",
      "outputs": [
        {
          "internalType": "string",
          "name": "",
          "type": "string"
        }
      ],
      "stateMutability": "view",
      "type": "function"
    },
    {
      "inputs": [
        {
          "internalType": "uint256",
          "name": "tokenId",
          "type": "uint256"
        }
      ],
      "name": "tokenURI",
      "outputs": [
        {
          "internalType": "string",
          "name": "",
          "type": "string"
        }
      ],
      "stateMutability": "view",
      "type": "function"
    },
    {
      "inputs": [
        {
          "internalType": "address",
          "name": "from",
          "type": "address"
        },
        {
          "internalType": "address",
          "name": "to",
          "type": "address"
        },
        {
          "internalType": "uint256",
          "name": "tokenId",
          "type": "uint256"
        }
      ],
      "name": "transferFrom",
      "outputs": [],
      "stateMutability": "nonpayable",
      "type": "function"
    },
    {
      "inputs": [
        {
          "internalType": "address",
          "name": "newOwner",
          "type": "address"
        }
      ],
      "name": "transferOwnership",
      "outputs": [],
      "stateMutability": "nonpayable",
      "type": "function"
    }
  ],
  "bytecode": "0x60806040523480156200001157600080fd5b5060405162003ba838038062003ba8833981810160405281019062000037919062000338565b818181600090816200004a919062000608565b5080600190816200005c919062000608565b5050506200007f62000073620000d760201b60201c565b620000df60201b60201c565b6200008f620000d760201b60201c565b600760006101000a81548173ffffffffffffffffffffffffffffffffffffffff021916908373ffffffffffffffffffffffffffffffffffffffff1602179055505050620006ef565b600033905090565b6000600760009054906101000a900473ffffffffffffffffffffffffffffffffffffffff16905081600760006101000a81548173ffffffffffffffffffffffffffffffffffffffff021916908373ffffffffffffffffffffffffffffffffffffffff1602179055508173ffffffffffffffffffffffffffffffffffffffff168173ffffffffffffffffffffffffffffffffffffffff167f8be0079c531659141344cd1fd0a4f28419497f9722a3daafe3b4186f6b6457e060405160405180910390a35050565b6000604051905090565b600080fd5b600080fd5b600080fd5b600080fd5b6000601f19601f8301169050919050565b7f4e487b7100000000000000000000000000000000000000000000000000000000600052604160045260246000fd5b6200020e82620001c3565b810181811067ffffffffffffffff8211171562000230576200022f620001d4565b5b80604052505050565b600062000245620001a5565b905062000253828262000203565b919050565b600067ffffffffffffffff821115620002765762000275620001d4565b5b6200028182620001c3565b9050602081019050919050565b60005b83811015620002ae57808201518184015260208101905062000291565b60008484015250505050565b6000620002d1620002cb8462000258565b62000239565b905082815260208101848484011115620002f057620002ef620001be565b5b620002fd8482856200028e565b509392505050565b600082601f8301126200031d576200031c620001b9565b5b81516200032f848260208601620002ba565b91505092915050565b60008060408385031215620003525762000351620001af565b5b600083015167ffffffffffffffff811115620003735762000372620001b4565b5b620003818582860162000305565b925050602083015167ffffffffffffffff811115620003a557620003a4620001b4565b5b620003b38582860162000305565b9150509250929050565b600081519050919050565b7f4e487b7100000000000000000000000000000000000000000000000000000000600052602260045260246000fd5b600060028204905060018216806200041057607f821691505b602082108103620004265762000425620003c8565b5b50919050565b60008190508160005260206000209050919050565b60006020601f8301049050919050565b600082821b905092915050565b600060088302620004907fffffffffffffffffffffffffffffffffffffffffffffffffffffffffffffffff8262000451565b6200049c868362000451565b95508019841693508086168417925050509392505050565b6000819050919050565b6000819050919050565b6000620004e9620004e3620004dd84620004b4565b620004be565b620004b4565b9050919050565b6000819050919050565b6200050583620004c8565b6200051d6200051482620004f0565b8484546200045e565b825550505050565b600090565b6200053462000525565b62000541818484620004fa565b505050565b5b8181101562000569576200055d6000826200052a565b60018101905062000547565b5050565b601f821115620005b85762000582816200042c565b6200058d8462000441565b810160208510156200059d578190505b620005b5620005ac8562000441565b83018262000546565b50505b505050565b600082821c905092915050565b6000620005dd60001984600802620005bd565b1980831691505092915050565b6000620005f88383620005ca565b9150826002028217905092915050565b6200061382620003bd565b67ffffffffffffffff8111156200062f576200062e620001d4565b5b6200063b8254620003f7565b620006488282856200056d565b600060209050601f8311600181146200068057600084156200066b578287015190505b620006778582620005ea565b865550620006e7565b601f19841662000690866200042c565b60005b82811015620006ba5784890151825560018201915060208501945060208101905062000693565b86831015620006da5784890151620006d6601f891682620005ca565b8355505b6001600288020188555050505b505050505050565b6134a980620006ff6000396000f3fe608060405234801561001057600080fd5b50600436106101165760003560e01c8063715018a6116100a2578063b88d4fde11610071578063b88d4fde146102cb578063c87b56dd146102e7578063d85d3d2714610317578063e985e9c514610347578063f2fde38b1461037757610116565b8063715018a6146102695780638da5cb5b1461027357806395d89b4114610291578063a22cb465146102af57610116565b806323b872dd116100e957806323b872dd146101b557806342842e0e146101d157806342966c68146101ed5780636352211e1461020957806370a082311461023957610116565b806301ffc9a71461011b57806306fdde031461014b578063081812fc14610169578063095ea7b314610199575b600080fd5b61013560048036038101906101309190611e3d565b610393565b6040516101429190611e85565b60405180910390f35b610153610475565b6040516101609190611f30565b60405180910390f35b610183600480360381019061017e9190611f88565b610507565b6040516101909190611ff6565b60405180910390f35b6101b360048036038101906101ae919061203d565b61058c565b005b6101cf60048036038101906101ca919061207d565b6106a3565b005b6101eb60048036038101906101e6919061207d565b610703565b005b61020760048036038101906102029190611f88565b610723565b005b610223600480360381019061021e9190611f88565b61077f565b6040516102309190611ff6565b60405180910390f35b610253600480360381019061024e91906120d0565b610830565b604051610260919061210c565b60405180910390f35b6102716108e7565b005b61027b61096f565b6040516102889190611ff6565b60405180910390f35b610299610999565b6040516102a69190611f30565b60405180910390f35b6102c960048036038101906102c49190612153565b610a2b565b005b6102e560048036038101906102e091906122c8565b610a41565b005b61030160048036038101906102fc9190611f88565b610aa3565b60405161030e9190611f30565b60405180910390f35b610331600480360381019061032c91906123ec565b610bf4565b60405161033e919061210c565b60405180910390f35b610361600480360381019061035c9190612435565b610cd4565b60405161036e9190611e85565b60405180910390f35b610391600480360381019061038c91906120d0565b610d68565b005b60007f80ac58cd000000000000000000000000000000000000000000000000000000007bffffffffffffffffffffffffffffffffffffffffffffffffffffffff1916827bffffffffffffffffffffffffffffffffffffffffffffffffffffffff1916148061045e57507f5b5e139f000000000000000000000000000000000000000000000000000000007bffffffffffffffffffffffffffffffffffffffffffffffffffffffff1916827bffffffffffffffffffffffffffffffffffffffffffffffffffffffff1916145b8061046e575061046d82610e5f565b5b9050919050565b606060008054610484906124a4565b80601f01602080910402602001604051908101604052809291908181526020018280546104b0906124a4565b80156104fd5780601f106104d2576101008083540402835291602001916104fd565b820191906000526020600020905b8154815290600101906020018083116104e057829003601f168201915b5050505050905090565b600061051282610ec9565b610551576040517f08c379a000000000000000000000000000000000000000000000000000000000815260040161054890612547565b60405180910390fd5b6004600083815260200190815260200160002060009054906101000a900473ffffffffffffffffffffffffffffffffffffffff169050919050565b60006105978261077f565b90508073ffffffffffffffffffffffffffffffffffffffff168373ffffffffffffffffffffffffffffffffffffffff1603610607576040517f08c379a00000000000000000000000000000000000000000000000000000000081526004016105fe906125d9565b60405180910390fd5b8073ffffffffffffffffffffffffffffffffffffffff16610626610f35565b73ffffffffffffffffffffffffffffffffffffffff16148061065557506106548161064f610f35565b610cd4565b5b610694576040517f08c379a000000000000000000000000000000000000000000000000000000000815260040161068b9061266b565b60405180910390fd5b61069e8383610f3d565b505050565b6106b46106ae610f35565b82610ff6565b6106f3576040517f08c379a00000000000000000000000000000000000000000000000000000000081526004016106ea906126fd565b60405180910390fd5b6106fe8383836110d4565b505050565b61071e83838360405180602001604052806000815250610a41565b505050565b61073461072e610f35565b82610ff6565b610773576040517f08c379a000000000000000000000000000000000000000000000000000000000815260040161076a9061278f565b60405180910390fd5b61077c8161133a565b50565b6000806002600084815260200190815260200160002060009054906101000a900473ffffffffffffffffffffffffffffffffffffffff169050600073ffffffffffffffffffffffffffffffffffffffff168173ffffffffffffffffffffffffffffffffffffffff1603610827576040517f08c379a000000000000000000000000000000000000000000000000000000000815260040161081e90612821565b60405180910390fd5b80915050919050565b60008073ffffffffffffffffffffffffffffffffffffffff168273ffffffffffffffffffffffffffffffffffffffff16036108a0576040517f08c379a0000000000000000000000000000000000000000000000000000000008152600401610897906128b3565b60405180910390fd5b600360008373ffffffffffffffffffffffffffffffffffffffff1673ffffffffffffffffffffffffffffffffffffffff168152602001908152602001600020549050919050565b6108ef610f35565b73ffffffffffffffffffffffffffffffffffffffff1661090d61096f565b73ffffffffffffffffffffffffffffffffffffffff1614610963576040517f08c379a000000000000000000000000000000000000000000000000000000000815260040161095a9061291f565b60405180910390fd5b61096d600061138d565b565b6000600760009054906101000a900473ffffffffffffffffffffffffffffffffffffffff16905090565b6060600180546109a8906124a4565b80601f01602080910402602001604051908101604052809291908181526020018280546109d4906124a4565b8015610a215780601f106109f657610100808354040283529160200191610a21565b820191906000526020600020905b815481529060010190602001808311610a0457829003601f168201915b5050505050905090565b610a3d610a36610f35565b8383611453565b5050565b610a52610a4c610f35565b83610ff6565b610a91576040517f08c379a0000000000000000000000000000000000000000000000000000000008152600401610a88906126fd565b60405180910390fd5b610a9d848484846115bf565b50505050565b6060610aae82610ec9565b610aed576040517f08c379a0000000000000000000000000000000000000000000000000000000008152600401610ae4906129b1565b60405180910390fd5b6000600660008481526020019081526020016000208054610b0d906124a4565b80601f0160208091040260200160405190810160405280929190818152602001828054610b39906124a4565b8015610b865780601f10610b5b57610100808354040283529160200191610b86565b820191906000526020600020905b815481529060010190602001808311610b6957829003601f168201915b505050505090506000610b9761161b565b90506000815103610bac578192505050610bef565b600082511115610be1578082604051602001610bc9929190612a0d565b60405160208183030381529060405292505050610bef565b610bea84611632565b925050505b919050565b6000610bfe610f35565b73ffffffffffffffffffffffffffffffffffffffff16610c1c61096f565b73ffffffffffffffffffffffffffffffffffffffff1614610c72576040517f08c379a0000000000000000000000000000000000000000000000000000000008152600401610c699061291f565b60405180910390fd5b610c7c60086116d9565b6000610c8860086116ef565b9050610c9433826116fd565b610c9e81846118d6565b610ccb600960009054906101000a900473ffffffffffffffffffffffffffffffffffffffff166001610a2b565b80915050919050565b6000600560008473ffffffffffffffffffffffffffffffffffffffff1673ffffffffffffffffffffffffffffffffffffffff16815260200190815260200160002060008373ffffffffffffffffffffffffffffffffffffffff1673ffffffffffffffffffffffffffffffffffffffff16815260200190815260200160002060009054906101000a900460ff16905092915050565b610d70610f35565b73ffffffffffffffffffffffffffffffffffffffff16610d8e61096f565b73ffffffffffffffffffffffffffffffffffffffff1614610de4576040517f08c379a0000000000000000000000000000000000000000000000000000000008152600401610ddb9061291f565b60405180910390fd5b600073ffffffffffffffffffffffffffffffffffffffff168173ffffffffffffffffffffffffffffffffffffffff1603610e53576040517f08c379a0000000000000000000000000000000000000000000000000000000008152600401610e4a90612aa3565b60405180910390fd5b610e5c8161138d565b50565b60007f01ffc9a7000000000000000000000000000000000000000000000000000000007bffffffffffffffffffffffffffffffffffffffffffffffffffffffff1916827bffffffffffffffffffffffffffffffffffffffffffffffffffffffff1916149050919050565b60008073ffffffffffffffffffffffffffffffffffffffff166002600084815260200190815260200160002060009054906101000a900473ffffffffffffffffffffffffffffffffffffffff1673ffffffffffffffffffffffffffffffffffffffff1614159050919050565b600033905090565b816004600083815260200190815260200160002060006101000a81548173ffffffffffffffffffffffffffffffffffffffff021916908373ffffffffffffffffffffffffffffffffffffffff160217905550808273ffffffffffffffffffffffffffffffffffffffff16610fb08361077f565b73ffffffffffffffffffffffffffffffffffffffff167f8c5be1e5ebec7d5bd14f71427d1e84f3dd0314c0f7b2291e5b200ac8c7c3b92560405160405180910390a45050565b600061100182610ec9565b611040576040517f08c379a000000000000000000000000000000000000000000000000000000000815260040161103790612b35565b60405180910390fd5b600061104b8361077f565b90508073ffffffffffffffffffffffffffffffffffffffff168473ffffffffffffffffffffffffffffffffffffffff16148061108d575061108c8185610cd4565b5b806110cb57508373ffffffffffffffffffffffffffffffffffffffff166110b384610507565b73ffffffffffffffffffffffffffffffffffffffff16145b91505092915050565b8273ffffffffffffffffffffffffffffffffffffffff166110f48261077f565b73ffffffffffffffffffffffffffffffffffffffff161461114a576040517f08c379a000000000000000000000000000000000000000000000000000000000815260040161114190612bc7565b60405180910390fd5b600073ffffffffffffffffffffffffffffffffffffffff168273ffffffffffffffffffffffffffffffffffffffff16036111b9576040517f08c379a00000000000000000000000000000000000000000000000000000000081526004016111b090612c59565b60405180910390fd5b6111c4838383611943565b6111cf600082610f3d565b6001600360008573ffffffffffffffffffffffffffffffffffffffff1673ffffffffffffffffffffffffffffffffffffffff168152602001908152602001600020600082825461121f9190612ca8565b925050819055506001600360008473ffffffffffffffffffffffffffffffffffffffff1673ffffffffffffffffffffffffffffffffffffffff16815260200190815260200160002060008282546112769190612cdc565b92505081905550816002600083815260200190815260200160002060006101000a81548173ffffffffffffffffffffffffffffffffffffffff021916908373ffffffffffffffffffffffffffffffffffffffff160217905550808273ffffffffffffffffffffffffffffffffffffffff168473ffffffffffffffffffffffffffffffffffffffff167fddf252ad1be2c89b69c2b068fc378daa952ba7f163c4a11628f55a4df523b3ef60405160405180910390a4611335838383611948565b505050565b6113438161194d565b6000600660008381526020019081526020016000208054611363906124a4565b90501461138a576006600082815260200190815260200160002060006113899190611d74565b5b50565b6000600760009054906101000a900473ffffffffffffffffffffffffffffffffffffffff16905081600760006101000a81548173ffffffffffffffffffffffffffffffffffffffff021916908373ffffffffffffffffffffffffffffffffffffffff1602179055508173ffffffffffffffffffffffffffffffffffffffff168173ffffffffffffffffffffffffffffffffffffffff167f8be0079c531659141344cd1fd0a4f28419497f9722a3daafe3b4186f6b6457e060405160405180910390a35050565b8173ffffffffffffffffffffffffffffffffffffffff168373ffffffffffffffffffffffffffffffffffffffff16036114c1576040517f08c379a00000000000000000000000000000000000000000000000000000000081526004016114b890612d5c565b60405180910390fd5b80600560008573ffffffffffffffffffffffffffffffffffffffff1673ffffffffffffffffffffffffffffffffffffffff16815260200190815260200160002060008473ffffffffffffffffffffffffffffffffffffffff1673ffffffffffffffffffffffffffffffffffffffff16815260200190815260200160002060006101000a81548160ff0219169083151502179055508173ffffffffffffffffffffffffffffffffffffffff168373ffffffffffffffffffffffffffffffffffffffff167f17307eab39ab6107e8899845ad3d59bd9653f200f220920489ca2b5937696c31836040516115b29190611e85565b60405180910390a3505050565b6115ca8484846110d4565b6115d684848484611a6a565b611615576040517f08c379a000000000000000000000000000000000000000000000000000000000815260040161160c90612dee565b60405180910390fd5b50505050565b606060405180602001604052806000815250905090565b606061163d82610ec9565b61167c576040517f08c379a000000000000000000000000000000000000000000000000000000000815260040161167390612e80565b60405180910390fd5b600061168661161b565b905060008151116116a657604051806020016040528060008152506116d1565b806116b084611bf1565b6040516020016116c1929190612a0d565b6040516020818303038152906040525b915050919050565b6001816000016000828254019250508190555050565b600081600001549050919050565b600073ffffffffffffffffffffffffffffffffffffffff168273ffffffffffffffffffffffffffffffffffffffff160361176c576040517f08c379a000000000000000000000000000000000000000000000000000000000815260040161176390612eec565b60405180910390fd5b61177581610ec9565b156117b5576040517f08c379a00000000000000000000000000000000000000000000000000000000081526004016117ac90612f58565b60405180910390fd5b6117c160008383611943565b6001600360008473ffffffffffffffffffffffffffffffffffffffff1673ffffffffffffffffffffffffffffffffffffffff16815260200190815260200160002060008282546118119190612cdc565b92505081905550816002600083815260200190815260200160002060006101000a81548173ffffffffffffffffffffffffffffffffffffffff021916908373ffffffffffffffffffffffffffffffffffffffff160217905550808273ffffffffffffffffffffffffffffffffffffffff16600073ffffffffffffffffffffffffffffffffffffffff167fddf252ad1be2c89b69c2b068fc378daa952ba7f163c4a11628f55a4df523b3ef60405160405180910390a46118d260008383611948565b5050565b6118df82610ec9565b61191e576040517f08c379a000000000000000000000000000000000000000000000000000000000815260040161191590612fea565b60405180910390fd5b8060066000848152602001908152602001600020908161193e91906131b6565b505050565b505050565b505050565b60006119588261077f565b905061196681600084611943565b611971600083610f3d565b6001600360008373ffffffffffffffffffffffffffffffffffffffff1673ffffffffffffffffffffffffffffffffffffffff16815260200190815260200160002060008282546119c19190612ca8565b925050819055506002600083815260200190815260200160002060006101000a81549073ffffffffffffffffffffffffffffffffffffffff021916905581600073ffffffffffffffffffffffffffffffffffffffff168273ffffffffffffffffffffffffffffffffffffffff167fddf252ad1be2c89b69c2b068fc378daa952ba7f163c4a11628f55a4df523b3ef60405160405180910390a4611a6681600084611948565b5050565b6000611a8b8473ffffffffffffffffffffffffffffffffffffffff16611d51565b15611be4578373ffffffffffffffffffffffffffffffffffffffff1663150b7a02611ab4610f35565b8786866040518563ffffffff1660e01b8152600401611ad694939291906132dd565b6020604051808303816000875af1925050508015611b1257506040513d601f19601f82011682018060405250810190611b0f919061333e565b60015b611b94573d8060008114611b42576040519150601f19603f3d011682016040523d82523d6000602084013e611b47565b606091505b506000815103611b8c576040517f08c379a0000000000000000000000000000000000000000000000000000000008152600401611b8390612dee565b60405180910390fd5b805181602001fd5b63150b7a0260e01b7bffffffffffffffffffffffffffffffffffffffffffffffffffffffff1916817bffffffffffffffffffffffffffffffffffffffffffffffffffffffff191614915050611be9565b600190505b949350505050565b606060008203611c38576040518060400160405280600181526020017f30000000000000000000000000000000000000000000000000000000000000008152509050611d4c565b600082905060005b60008214611c6a578080611c539061336b565b915050600a82611c6391906133e2565b9150611c40565b60008167ffffffffffffffff811115611c8657611c8561219d565b5b6040519080825280601f01601f191660200182016040528015611cb85781602001600182028036833780820191505090505b5090505b60008514611d4557600182611cd19190612ca8565b9150600a85611ce09190613413565b6030611cec9190612cdc565b60f81b818381518110611d0257611d01613444565b5b60200101907effffffffffffffffffffffffffffffffffffffffffffffffffffffffffffff1916908160001a905350600a85611d3e91906133e2565b9450611cbc565b8093505050505b919050565b6000808273ffffffffffffffffffffffffffffffffffffffff163b119050919050565b508054611d80906124a4565b6000825580601f10611d925750611db1565b601f016020900490600052602060002090810190611db09190611db4565b5b50565b5b80821115611dcd576000816000905550600101611db5565b5090565b6000604051905090565b600080fd5b600080fd5b60007fffffffff0000000000000000000000000000000000000000000000000000000082169050919050565b611e1a81611de5565b8114611e2557600080fd5b50565b600081359050611e3781611e11565b92915050565b600060208284031215611e5357611e52611ddb565b5b6000611e6184828501611e28565b91505092915050565b60008115159050919050565b611e7f81611e6a565b82525050565b6000602082019050611e9a6000830184611e76565b92915050565b600081519050919050565b600082825260208201905092915050565b60005b83811015611eda578082015181840152602081019050611ebf565b60008484015250505050565b6000601f19601f8301169050919050565b6000611f0282611ea0565b611f0c8185611eab565b9350611f1c818560208601611ebc565b611f2581611ee6565b840191505092915050565b60006020820190508181036000830152611f4a8184611ef7565b905092915050565b6000819050919050565b611f6581611f52565b8114611f7057600080fd5b50565b600081359050611f8281611f5c565b92915050565b600060208284031215611f9e57611f9d611ddb565b5b6000611fac84828501611f73565b91505092915050565b600073ffffffffffffffffffffffffffffffffffffffff82169050919050565b6000611fe082611fb5565b9050919050565b611ff081611fd5565b82525050565b600060208201905061200b6000830184611fe7565b92915050565b61201a81611fd5565b811461202557600080fd5b50565b60008135905061203781612011565b92915050565b6000806040838503121561205457612053611ddb565b5b600061206285828601612028565b925050602061207385828601611f73565b9150509250929050565b60008060006060848603121561209657612095611ddb565b5b60006120a486828701612028565b93505060206120b586828701612028565b92505060406120c686828701611f73565b9150509250925092565b6000602082840312156120e6576120e5611ddb565b5b60006120f484828501612028565b91505092915050565b61210681611f52565b82525050565b600060208201905061212160008301846120fd565b92915050565b61213081611e6a565b811461213b57600080fd5b50565b60008135905061214d81612127565b92915050565b6000806040838503121561216a57612169611ddb565b5b600061217885828601612028565b92505060206121898582860161213e565b9150509250929050565b600080fd5b600080fd5b7f4e487b7100000000000000000000000000000000000000000000000000000000600052604160045260246000fd5b6121d582611ee6565b810181811067ffffffffffffffff821117156121f4576121f361219d565b5b80604052505050565b6000612207611dd1565b905061221382826121cc565b919050565b600067ffffffffffffffff8211156122335761223261219d565b5b61223c82611ee6565b9050602081019050919050565b82818337600083830152505050565b600061226b61226684612218565b6121fd565b90508281526020810184848401111561228757612286612198565b5b612292848285612249565b509392505050565b600082601f8301126122af576122ae612193565b5b81356122bf848260208601612258565b91505092915050565b600080600080608085870312156122e2576122e1611ddb565b5b60006122f087828801612028565b945050602061230187828801612028565b935050604061231287828801611f73565b925050606085013567ffffffffffffffff81111561233357612332611de0565b5b61233f8782880161229a565b91505092959194509250565b600067ffffffffffffffff8211156123665761236561219d565b5b61236f82611ee6565b9050602081019050919050565b600061238f61238a8461234b565b6121fd565b9050828152602081018484840111156123ab576123aa612198565b5b6123b6848285612249565b509392505050565b600082601f8301126123d3576123d2612193565b5b81356123e384826020860161237c565b91505092915050565b60006020828403121561240257612401611ddb565b5b600082013567ffffffffffffffff8111156124205761241f611de0565b5b61242c848285016123be565b91505092915050565b6000806040838503121561244c5761244b611ddb565b5b600061245a85828601612028565b925050602061246b85828601612028565b9150509250929050565b7f4e487b7100000000000000000000000000000000000000000000000000000000600052602260045260246000fd5b600060028204905060018216806124bc57607f821691505b6020821081036124cf576124ce612475565b5b50919050565b7f4552433732313a20617070726f76656420717565727920666f72206e6f6e657860008201527f697374656e7420746f6b656e0000000000000000000000000000000000000000602082015250565b6000612531602c83611eab565b915061253c826124d5565b604082019050919050565b6000602082019050818103600083015261256081612524565b9050919050565b7f4552433732313a20617070726f76616c20746f2063757272656e74206f776e6560008201527f7200000000000000000000000000000000000000000000000000000000000000602082015250565b60006125c3602183611eab565b91506125ce82612567565b604082019050919050565b600060208201905081810360008301526125f2816125b6565b9050919050565b7f4552433732313a20617070726f76652063616c6c6572206973206e6f74206f7760008201527f6e6572206e6f7220617070726f76656420666f7220616c6c0000000000000000602082015250565b6000612655603883611eab565b9150612660826125f9565b604082019050919050565b6000602082019050818103600083015261268481612648565b9050919050565b7f4552433732313a207472616e736665722063616c6c6572206973206e6f74206f60008201527f776e6572206e6f7220617070726f766564000000000000000000000000000000602082015250565b60006126e7603183611eab565b91506126f28261268b565b604082019050919050565b60006020820190508181036000830152612716816126da565b9050919050565b7f4552433732314275726e61626c653a2063616c6c6572206973206e6f74206f7760008201527f6e6572206e6f7220617070726f76656400000000000000000000000000000000602082015250565b6000612779603083611eab565b91506127848261271d565b604082019050919050565b600060208201905081810360008301526127a88161276c565b9050919050565b7f4552433732313a206f776e657220717565727920666f72206e6f6e657869737460008201527f656e7420746f6b656e0000000000000000000000000000000000000000000000602082015250565b600061280b602983611eab565b9150612816826127af565b604082019050919050565b6000602082019050818103600083015261283a816127fe565b9050919050565b7f4552433732313a2061646472657373207a65726f206973206e6f74206120766160008201527f6c6964206f776e65720000000000000000000000000000000000000000000000602082015250565b600061289d602983611eab565b91506128a882612841565b604082019050919050565b600060208201905081810360008301526128cc81612890565b9050919050565b7f4f776e61626c653a2063616c6c6572206973206e6f7420746865206f776e6572600082015250565b6000612909602083611eab565b9150612914826128d3565b602082019050919050565b60006020820190508181036000830152612938816128fc565b9050919050565b7f45524337323155524953746f726167653a2055524920717565727920666f722060008201527f6e6f6e6578697374656e7420746f6b656e000000000000000000000000000000602082015250565b600061299b603183611eab565b91506129a68261293f565b604082019050919050565b600060208201905081810360008301526129ca8161298e565b9050919050565b600081905092915050565b60006129e782611ea0565b6129f181856129d1565b9350612a01818560208601611ebc565b80840191505092915050565b6000612a1982856129dc565b9150612a2582846129dc565b91508190509392505050565b7f4f776e61626c653a206e6577206f776e657220697320746865207a65726f206160008201527f6464726573730000000000000000000000000000000000000000000000000000602082015250565b6000612a8d602683611eab565b9150612a9882612a31565b604082019050919050565b60006020820190508181036000830152612abc81612a80565b9050919050565b7f4552433732313a206f70657261746f7220717565727920666f72206e6f6e657860008201527f697374656e7420746f6b656e0000000000000000000000000000000000000000602082015250565b6000612b1f602c83611eab565b9150612b2a82612ac3565b604082019050919050565b60006020820190508181036000830152612b4e81612b12565b9050919050565b7f4552433732313a207472616e736665722066726f6d20696e636f72726563742060008201527f6f776e6572000000000000000000000000000000000000000000000000000000602082015250565b6000612bb1602583611eab565b9150612bbc82612b55565b604082019050919050565b60006020820190508181036000830152612be081612ba4565b9050919050565b7f4552433732313a207472616e7366657220746f20746865207a65726f2061646460008201527f7265737300000000000000000000000000000000000000000000000000000000602082015250565b6000612c43602483611eab565b9150612c4e82612be7565b604082019050919050565b60006020820190508181036000830152612c7281612c36565b9050919050565b7f4e487b7100000000000000000000000000000000000000000000000000000000600052601160045260246000fd5b6000612cb382611f52565b9150612cbe83611f52565b9250828203905081811115612cd657612cd5612c79565b5b92915050565b6000612ce782611f52565b9150612cf283611f52565b9250828201905080821115612d0a57612d09612c79565b5b92915050565b7f4552433732313a20617070726f766520746f2063616c6c657200000000000000600082015250565b6000612d46601983611eab565b9150612d5182612d10565b602082019050919050565b60006020820190508181036000830152612d7581612d39565b9050919050565b7f4552433732313a207472616e7366657220746f206e6f6e20455243373231526560008201527f63656976657220696d706c656d656e7465720000000000000000000000000000602082015250565b6000612dd8603283611eab565b9150612de382612d7c565b604082019050919050565b60006020820190508181036000830152612e0781612dcb565b9050919050565b7f4552433732314d657461646174613a2055524920717565727920666f72206e6f60008201527f6e6578697374656e7420746f6b656e0000000000000000000000000000000000602082015250565b6000612e6a602f83611eab565b9150612e7582612e0e565b604082019050919050565b60006020820190508181036000830152612e9981612e5d565b9050919050565b7f4552433732313a206d696e7420746f20746865207a65726f2061646472657373600082015250565b6000612ed6602083611eab565b9150612ee182612ea0565b602082019050919050565b60006020820190508181036000830152612f0581612ec9565b9050919050565b7f4552433732313a20746f6b656e20616c7265616479206d696e74656400000000600082015250565b6000612f42601c83611eab565b9150612f4d82612f0c565b602082019050919050565b60006020820190508181036000830152612f7181612f35565b9050919050565b7f45524337323155524953746f726167653a2055524920736574206f66206e6f6e60008201527f6578697374656e7420746f6b656e000000000000000000000000000000000000602082015250565b6000612fd4602e83611eab565b9150612fdf82612f78565b604082019050919050565b6000602082019050818103600083015261300381612fc7565b9050919050565b60008190508160005260206000209050919050565b60006020601f8301049050919050565b600082821b905092915050565b60006008830261306c7fffffffffffffffffffffffffffffffffffffffffffffffffffffffffffffffff8261302f565b613076868361302f565b95508019841693508086168417925050509392505050565b6000819050919050565b60006130b36130ae6130a984611f52565b61308e565b611f52565b9050919050565b6000819050919050565b6130cd83613098565b6130e16130d9826130ba565b84845461303c565b825550505050565b600090565b6130f66130e9565b6131018184846130c4565b505050565b5b818110156131255761311a6000826130ee565b600181019050613107565b5050565b601f82111561316a5761313b8161300a565b6131448461301f565b81016020851015613153578190505b61316761315f8561301f565b830182613106565b50505b505050565b600082821c905092915050565b600061318d6000198460080261316f565b1980831691505092915050565b60006131a6838361317c565b9150826002028217905092915050565b6131bf82611ea0565b67ffffffffffffffff8111156131d8576131d761219d565b5b6131e282546124a4565b6131ed828285613129565b600060209050601f831160018114613220576000841561320e578287015190505b613218858261319a565b865550613280565b601f19841661322e8661300a565b60005b8281101561325657848901518255600182019150602085019450602081019050613231565b86831015613273578489015161326f601f89168261317c565b8355505b6001600288020188555050505b505050505050565b600081519050919050565b600082825260208201905092915050565b60006132af82613288565b6132b98185613293565b93506132c9818560208601611ebc565b6132d281611ee6565b840191505092915050565b60006080820190506132f26000830187611fe7565b6132ff6020830186611fe7565b61330c60408301856120fd565b818103606083015261331e81846132a4565b905095945050505050565b60008151905061333881611e11565b92915050565b60006020828403121561335457613353611ddb565b5b600061336284828501613329565b91505092915050565b600061337682611f52565b91507fffffffffffffffffffffffffffffffffffffffffffffffffffffffffffffffff82036133a8576133a7612c79565b5b600182019050919050565b7f4e487b7100000000000000000000000000000000000000000000000000000000600052601260045260246000fd5b60006133ed82611f52565b91506133f883611f52565b925082613408576134076133b3565b5b828204905092915050565b600061341e82611f52565b915061342983611f52565b925082613439576134386133b3565b5b828206905092915050565b7f4e487b7100000000000000000000000000000000000000000000000000000000600052603260045260246000fdfea26469706673582212201b16b2873e4f3c92fd302ed202e9a12c5b04726154d1e75f82a88926c5a440e964736f6c63430008110033",
  "linkReferences": {},
  "deployedLinkReferences": {}
}